:020000022000DC
:1060000000F0002095620200356202003762020053
:10601000396202003B6202003D62020000000000A3
:106020000000000000000000000000003F620200CD
:10603000416202000000000043620200456202006B
:10604000496202004B6202004D6202004F62020090
:1060500051620200536202004D7A02005762020050
:10606000596202005B6202004D5403005F6202004D
:106070006162020063620200656202006762020000
:1060800069620200197F030049C002006F620200CA
:10609000417F03007362020085760200776202008E
:1060A000796202007B6202007D6202007F62020070
:1060B00081620200836202004762020047620200BE
:1060C0008562020087620200896202008B62020020
:0C60D0008D6202008F62020091620200EB
:1060DC00354936480A1A02D0072291438D46344975
:1060EC0034480A1A06D00722914381F30988022208
:1060FC0082F3148830483149314A00F043F8314872
:10610C003149324A00F03EF831483249324A00F007
:10611C0039F832483249334A00F034F832483349BE
:10612C00334A00F02FF833483349344A00F02AF848
:10613C0033483449344A00F025F8344834490022B5
:10614C0000F02BF833483449002200F026F833488D
:10615C003349091A082903DB00220260043001606C
:10616C001F482049884205D00268043003B4904788
:10617C0003BCF7E700208646EC4600200021294AA4
:10618C009047FEE7884207D0521A05D003780130B9
:10619C000B700131013AF9D17047884202D002707C
:1061AC000130FAE77047000000F0002000E8002002
:1061BC0000F0002000F0002088F40300C83200201A
:1061CC00D8330020C4620200C462020018DC030051
:1061DC0088F40300C8320020C8320020D0DC030051
:1061EC00D0DC0300D0DC0300D0DC0300D0DC0300E7
:1061FC00D0DC0300D0DC0300D0DC030088F4030007
:10620C0098F50300D8330020D8330020D833002071
:10621C00846A0020846A0020846A0020846A00203A
:10622C00846E0020C96F0200FEE7FEE7FEE7FEE782
:10623C00FEE7FEE7FEE7FEE7FEE7FEE7FEE7FEE72A
:10624C00FEE7FEE7FEE7FEE7FEE7FEE7FEE7FEE71A
:10625C00FEE7FEE7FEE7FEE7FEE7FEE7FEE7FEE70A
:10626C00FEE7FEE7FEE7FEE7FEE7FEE7FEE7FEE7FA
:10627C00FEE7FEE7FEE7FEE7FEE7FEE7FEE7FEE7EA
:10628C00FEE7FEE7FEE700BF08484FF00701884332
:10629C008546074880470748016841F47001016052
:1062AC00BFF34F8FBFF36F8FFFF712BF00F00020CB
:0862BC009D83030088ED00E062
:1062C40041DF70470C4B1B6813F4804F13D00B4B0A
:1062D4001B68012B0FDD00B583B0094BD3F80435DF
:1062E400084A009240F255120749022006F016FEB1
:1062F40003B05DF804FB70474833002044330020AA
:1063040000B0004030DE030027DE030010B586B085
:106314005068E8B11B4B1B6813F4804F03D01A4B31
:106324001B68032B01DC06B010BD184BD3F80435F1
:106334004988147852780490039202940191144A83
:10634400009240F27D121349042006F0E7FDEAE7CB
:106354000C4B1B6813F4804FE5D00B4B1B68032BCD
:10636400E1DD0A4BD3F80435498812780292019191
:10637400094A00924FF4C1720649042006F0CEFD8A
:10638400D1E700BF483300204433002000B0004070
:10639400B4DE030027DE030008DF030000B583B08A
:1063A400012A20D052B1022A38D0274A4FF4B871BA
:1063B400032011F0D8FA03B05DF804FB234B1B68EB
:1063C40013F4804FF7D0224B1B68032BF3DD214BD2
:1063D400D3F80435204A009240F263121F49042086
:1063E40006F09CFDE7E7062232214FF4F01001F09D
:1063F400AFFA164B1B6813F4804FDCD0144B1B68A8
:10640400032BD8DD134BD3F80435154A00924FF40F
:10641400B4721249042006F081FDCCE70B4B1B68D3
:1064240013F4804FC7D00A4B1B68032BC3DD094B01
:10643400D3F804350B4A00924FF4B672074904208E
:1064440006F06CFDB7E700BFE0DD03004833002031
:106454004433002000B0004050DE030027DE030078
:1064640070DE030090DE03002DE9F04188B004AF34
:106474006421334801F0F8F909F059FCA0B9314B13
:106484001B78BBB101F010FC2F4B1B6813F4804F39
:1064940046D02E4B1B68032B42DDE8468AB00DF133
:1064A400100C6646002326E0294A40F2392111F0F7
:1064B4005AFAE4E7274A3B1D07CA83E8070018464F
:1064C40001F07EF90028DDD0214A4FF4117111F05A
:1064D4004AFAD7E7C25C4FEA121E59001E4C2568DF
:1064E40015F80EE006F813E002F00F0201312468FB
:1064F400A25C725401330F2BECD900238CF82030AA
:10650400164BD3F80435CDF808C0154A0192154A44
:1065140000924FF412721449042006F0FFFCC546A1
:1065240000214FF4F01001F008FA0222C8214FF4C0
:10653400F01001F00DFA1037BD46BDE8F08100BF40
:10654400856702009834002048330020443300203B
:10655400E0DD0300D0DC03004C33002000B0004039
:10656400B8E20300C8E2030027DE030000B585B0EB
:106574001E4B1B6813F4804F03D01D4B1B68032B69
:1065840019DC03A80DF090F9184B1B6813F4804F25
:1065940003D0174B1B68032B19DC00214FF4F010B8
:1065A40001F0CBF90422C8214FF4F01001F0D0F926
:1065B40005B05DF804FB0F4BD3F804350E4A009286
:1065C40040F2DF120D49042006F0A8FCD9E7094B7C
:1065D400D3F80435BDF80C200192094A009240F228
:1065E400E3120649042006F099FCD6E7483300205C
:1065F4004433002000B0004084E2030027DE03009F
:10660400A0E2030000B583B038222349012000F042
:1066140085FFB0B9214B1B6813F4804F03D0204B86
:106624001B68032B02DC03B05DF804FB1D4BD3F89D
:1066340004351D4A009283221C49042006F06EFC96
:10664400F1E7062813D0154B1B6813F4804FEAD0EA
:10665400134B1B68002BE6DD124BD3F80435144AA8
:1066640000928B221149012006F058FCDBE70B4B0A
:106674001B6813F4804FD6D0094B1B68032BD2DD63
:10668400084BD3F804350B4A0092872207490420AB
:1066940006F044FCC7E700BFF8330020483300206D
:1066A4004433002000B00040E4DC030027DE030094
:1066B40038DD030008DD030000B583B00F4B1B6811
:1066C40013F4804F03D00E4B1B68032B0ADC032208
:1066D400C8214FF4F01001F03BF909F0B3FB03B00B
:1066E4005DF804FB074BD3F80435074A00924FF4D6
:1066F400C4720649042006F011FCE8E74833002080
:106704004433002000B0004068E2030027DE0300A9
:1067140010B582B00446144B1B6813F4804F03D0A9
:10672400124B1B68032B05DC012C10D0032C11D059
:1067340002B010BD0E4BD3F8043501900D4A0092FF
:106744004FF4CC720C49042006F0E8FBECE7FFF7A9
:1067540059FFEDE709F02AFB3821084800F020FF33
:10676400FFF7AAFFE4E700BF4833002044330020CA
:1067740000B00040F0E1030027DE0300F8330020FE
:106784003038032800D9704708B5FFF7C1FF08BDAA
:1067940008B503781C2B00D008BDFFF78DFFFBE77D
:1067A40038B505460024084B1B78A3420AD92301B7
:1067B40006220649C958686817F068F910B101340F
:1067C400E4B2F0E7204638BD99340020D8330020E5
:1067D40070B586B004460E4604F0BEFE0546A34AD4
:1067E4001378591C11708DF81530322304936423E7
:1067F40003932379012B3BD0A378002B00F0628113
:1068040033019B4AD358C21A00F12D81994B9A4205
:1068140040F25881984B1B6813F4804F04D0974B77
:106824001B68032B00F342812378002B00F0738153
:106834008F4B03EB06139B68EA1A00F16A818D4BB8
:106844009A4240F268818C4B1B6813F4804F3CD011
:106854008A4B1B68032B38DD894BD3F80435894AEE
:10686400009240F215128849042006F057FB2CE0F0
:10687400A3783BB133017E4AD358C21A27D47D4B47
:106884009A4226D8E37843B1794B03EB06135B684D
:10689400EA1A59D4774B9A4258D8237843B1744BA7
:1068A40003EB06139B68EA1A74D4724B9A4273D8AA
:1068B400637853B16E4B03EB0613DB68EA1A00F1FD
:1068C40090806C4B9A4200F28E8006B070BD1A1A0A
:1068D400D5E73301664AD55001218DF814101120F3
:1068E40001F01AF8644B1B6813F4804F03D0634B18
:1068F4001B68032B1DDC03AA05A9644816F0CAFE15
:106904000028CAD15C4B1B6813F4804FC5D05B4B85
:106914001B68032BC1DD5A4BD3F804359DF81420B2
:1069240001925B4A0092D9225749042006F0F6FAF4
:10693400B3E7534BD3F80435564A0092C822524960
:10694400042006F0EBFAD6E75A1BA3E7484B03EB07
:1069540006135D6000218DF81410112000F0DCFF97
:10696400454B1B6813F4804F03D0444B1B68032B27
:1069740005DC03AA05A9454816F08CFEC0E7404B88
:10698400D3F80435444A0092D2223F49042006F049
:10699400C5FAEEE75A1B88E7354B03EB0616B560DC
:1069A40001218DF81410122000F0B6FF324B1B6841
:1069B40013F4804F03D0314B1B68032B06DC0223F6
:1069C40003AA05A9354816F0A3FE25E02C4BD3F8FD
:1069D4000435334A0092E4222B49042006F09EFA3F
:1069E400EDE75A1B6DE7224B03EB0616F560002119
:1069F4008DF81410122000F08FFF1F4B1B6813F446
:106A0400804F03D01D4B1B68032B21DC022303AAF8
:106A140005A9224816F07CFE00287FF456AF164BD9
:106A24001B6813F4804F3FF450AF144B1B68032BC7
:106A34007FF74BAF124BD3F804359DF81420019225
:106A4400184A0092F6221049042006F067FA3CE73F
:106A54000B4BD3F80435144A0092EF220A49042060
:106A640006F05CFAD2E71A1AD0E600BFBD34002063
:106A74009C34002020A10700483300204433002028
:106A840000B0004058E1030027DE0300303400204A
:106A940000E0030090DF0300C8DF0300643400203B
:106AA40028E00300B8E0030070E003002D4BD3F8A6
:106AB40004352D4A00924FF482722C49042006F0CA
:106AC4002DFAB1E6E378002B3FF4AEAE284B03EB8E
:106AD40006135B68EA1A1AD4264B9A427FF6A4AED0
:106AE400254B1B6813F4804F3FF49EAE234B1B6869
:106AF400032B7FF799AE1B4BD3F80435204A009241
:106B04004FF486721949042006F008FA8CE65A1BE1
:106B1400E2E75A1B93E66378002B3FF4D6AE144B9E
:106B240003EB0616F368EA1A1AD4124B9A427FF65C
:106B3400CCAE114B1B6813F4804F3FF4C6AE0F4B21
:106B44001B68032B7FF7C1AE064BD3F804350D4AFF
:106B5400009240F21D120549042006F0DFF9B4E664
:106B64005A1BE2E700B00040E0E0030027DE030028
:106B74009C34002020A10700483300204433002027
:106B84001CE10300A4E10300F0B587B004460378D8
:106B9400012B1BD05BBB3E4B1B78012B3FD93D4BDC
:106BA4001B6813F4804F22D03B4B1B68002B1EDD67
:106BB4003A4BD3F8043502220192394A009240F24A
:106BC4004D123849012006F0A9F910E0314B1B6839
:106BD40013F4804F03D0304B1B68032B09DC204691
:106BE400FFF7DEFD014604F10800FFF7F1FD07B0F1
:106BF400F0BD2A4BD3F80435827AC17A007A657ADB
:106C0400267B05960495039002910192264A0092F0
:106C14004FF499722349042006F080F9DFE786686F
:106C2400224DDA00D01A81006818866166683768D8
:106C34006F50B18881800346E26816685468906892
:106C4400D268C3F80660C3F80A40C3F80E00C3F85C
:106C54001220FFF7D7FC0E4C2178CA00501A83008B
:106C640018332B44124F0E01B8194360531A9A007B
:106C74001544BD510635856000F004FB23780133CB
:106C840023700422C8214FF4F01000F061FEAEE737
:106C940099340020483300204433002000B00040E1
:106CA400A4DD030027DE030074DD0300F8330020B5
:106CB400D833002000B58FB0194BDB680EA941F81A
:106CC400143D04220AA800F0F5FEE8B920220021B0
:106CD400684616F03AFF01238DF8003007238DF83B
:106CE40003308DF808300AAB03930E4B04930E4B1C
:106CF40008930E49684609F06FF858B90C4804F037
:106D040007F90FB05DF804FB0A4A40F2F71110F0DE
:106D14002AFEDBE7074A4FF4007110F024FEEDE78A
:106D2400D0DC0300956702003D6F02009834002018
:106D3400C8320020E0DD030000B585B0224A0421FA
:106D44004FF4C04006F0CEF8204B1B6813F4804F7C
:106D540003D01F4B1B68032B17DC11F0F3F800BBA7
:106D640000F026FE1B4800F043FE00BB1A4B1869D6
:106D740000F094FC08BBFFF79DFF00F0A9FA174848
:106D840000F090FA05B05DF804FB154BD3F8043518
:106D9400144A009240F20A221349042006F0BEF875
:106DA400DBE7124A4FF4037110F0DDFDD8E70F4A18
:106DB4004FF4047110F0D7FDD8E70C4A4FF4057175
:106DC40010F0D1FDD7E700BFBDCE0200483300204C
:106DD4004433002015670200D0DC03008D6B0200F1
:106DE40000B0004010E2030027DE0300E0DD0300F2
:106DF40070B582B02A4B1B6813F4804F03D0294B23
:106E04001B68032B0EDC38222749012000F062FBAB
:106E1400002842D0254B00221A70254804F082F83D
:106E240002B070BD234BD3F80435234A009240F2DC
:106E34001D222249042006F071F8E4E70134E4B28B
:106E4400012CEAD81849E200101B83000B441C4EA5
:106E540025017019735106338360131B9A0018328D
:106E640011444160114A13780133137000F00AFA97
:106E74000B4B1B6813F4804FE0D00A4B1B68032BA9
:106E8400DCDD0C4BD3F804350E4A009240F2292283
:106E94000A49042006F042F8D0E70024D0E700BFF6
:106EA4004833002044330020F83300209934002074
:106EB400356F020000B0004050DF030027DE0300FE
:106EC400D833002068DF030003780D2B22D100B5EE
:106ED40083B0114B1B6813F4804F03D00F4B1B6816
:106EE400042B05DC0E4B1B7873B103B05DF804FB77
:106EF4000C4BD3F804350C4A00924FF4DE720B4964
:106F0400052006F00BF8EDE7FFF772FF044B0122B2
:106F14001A70EAE7704700BF48330020443300206A
:106F2400BC34002000B0004034DF030027DE03003F
:106F340008B500F019F908BD10B582B0194B1B68EB
:106F440013F4804F03D0184B1B68032B01DC00247F
:106F54000CE0164BD3F80435154A009240F2CF12D8
:106F64001449042005F0DAFFF1E70134012C17D8A5
:106F7400114B342000FB0430104B03630023836265
:106F840080F82C3080F82D30611CC9B216F048FB13
:106F94000028EAD00A4A40F2D91110F0E4FCE4E7F0
:106FA40002B010BD483300204433002000B000403C
:106FB40048E2030027DE03003034002004E203002B
:106FC400E0DD030008B5FFF7B7FEEFF3108572B6F6
:106FD400174B9B689BB9164A01239360154BD3F852
:106FE4008010154801401160C3F88000D3F8841064
:106FF40051604FF0FF32C3F88420002400E00124E4
:1070040005B962B6FFF730FA094B9B686BB164B9F6
:10701400EFF3108172B6064B1868064A1060586880
:10702400506000229A6001B962B6FFF749F9FCE7A3
:10703400406A002000E100E0FC06FFBD82684B6866
:1070440019688A4202D91A600120704700207047EB
:1070540030B442685378FF2B06D0FF2B1DD0082B89
:107064002ED0002030BC70471478102CF5D85588E9
:1070740040F2DA34A542F0D101230B7054688C60DD
:1070840084680F344C60CA604278043AD2B20A74FD
:10709400406802444A611846E4E714781D2CDED1A6
:1070A400558840F2DA34A542D9D100230B705368D5
:1070B4008B600832CA60436818334B600120D1E703
:1070C400137AFF2B01D00020CCE7B2F8094040F23C
:1070D400DA339C4201D00020C4E700230B70D2F8BD
:1070E4000B308B600F32CA6083680F334B60012012
:1070F400B8E7037C0D2B35D870B58EB00D46044629
:10710400466806220968304616F0C0FC10B100201B
:107114000EB070BD0AA930680A90B388ADF82C305F
:10712400E2685368CDF82E300023ADF832308DF884
:107134003430A868019002910393ADF810300592A1
:10714400227CADF8182007936369089304238DF813
:1071540024300DF103010DEB030004F0E4FF9DF86E
:107164000300D5E70020704770B58EB008A9FFF77B
:107174006FFF38B19DF8203033B1012B1FD0784612
:1071840000F060FD0EB070BD374B1C684CB1062298
:10719400099954F80C0C16F079FC0028F2D02468F4
:1071A400F4E700238DF80830099B03930A9B0493AA
:1071B4000B9B05932D4B1B6802A89847E2E701231C
:1071C4008DF80830099B0393274B1C6822E0C5F314
:1071D40040038DF81230C5F380038DF81330C5F3E6
:1071E400C0038DF810302D098DF8115006F00106FA
:1071F4008DF814600B9B093306939DF83030093BDE
:10720400DBB28DF81C30042BBCD8184B1B6802A8C9
:1072140098472468002CB5D0A4F10C05294608A889
:10722400FFF767FF0028F4D0294608A8FFF706FFF8
:107234000028EED00B9B1E7A06F01F050C4B1B6832
:1072440013F4804FC3D00B4B1B68032BBFDD0A4BD9
:10725400D3F80435094A009240F22B12084904205D
:1072640005F05CFEB3E700BFC4340020C034002046
:10727400483300204433002000B0004034E30300CE
:1072840027E3030010B5044628B104F10C010448B7
:1072940005F082FD10BD784600F0D4FCF5E700BF90
:1072A400C434002010B5044610B1034B1C6010BD5B
:1072B400784600F0C7FCF8E7C034002008B5034A5C
:1072C4004821032010F04FFB08BD00BF8CE30300EE
:1072D40000B58BB008A909A808F0C2FDA8B9194BDC
:1072E4000593194B0693194B079304230493099BA5
:1072F400A3F5805302930123039302A9144806F0D3
:1073040023FD38B90BB05DF804FB124A702110F06C
:107314002AFBE4E7104806F05DFD104B1B6813F4EC
:10732400804FEFD00E4B1B68002BEBDD0D4BD3F8D9
:1073340004350D4A00927E220C49012005F0EEFD31
:10734400E0E700BF05740200C17202007573020019
:10735400C83400208CE30300D432002048330020DA
:107364004433002000B0004060E30300D3E3030093
:107374000C4B1B6813F4804F03D00B4B1B68032B7F
:1073840000DC704700B583B0084BD3F80435084AD5
:10739400009254220749042005F0C0FD03B05DF8B3
:1073A40004FB00BF483300204433002000B00040F9
:1073B400FCE30300D3E3030010B582B004460B4B97
:1073C4001B6813F4804F03D0094B1B68032B02DCAA
:1073D400A04702B010BD074BD3F80435064A00920B
:1073E4004D220649042005F099FDF1E748330020B9
:1073F4004433002000B00040E4E30300D3E303007F
:1074040010B582B01446154B1B6813F4804F03D09B
:10741400134B1B68032B07DC012C10D0022C12D059
:10742400032C14D002B010BD0E4BD3F804350E4A11
:10743400009238220D49042005F070FDECE77846EF
:1074440000F000FCEAE7784600F0FCFBE8E7084AB5
:107454004121042010F087FAE4E700BF48330020FC
:107464004433002000B0004024E40300D3E30300CD
:107474008CE3030000B583B00F4B1B6813F4804FFB
:1074840003D00E4B1B68032B06DC0D4806F054FAA0
:1074940068B903B05DF804FB0A4BD3F804350A4A13
:1074A40000925E220949042005F038FDEDE7084802
:1074B40006F090FCEDE700BF483300204433002081
:1074C400C834002000B0004014E40300D3E30300F8
:1074D400E432002070B504460D46164606F092FCD0
:1074E40028B904F047FD0028F8D020BFF6E721466C
:1074F400094806F04BFA014630B1324604312846B9
:1075040016F0FAFA002070BD32460021284616F023
:107514001CFB0520F7E700BFC834002070B582B01B
:1075240004460E46154606F06DFC28B904F022FD0B
:107534000028F8D020BFF6E72A462146124806F074
:10754400F2FA0446114B1B6813F4804F03D0104B1E
:107554001B68032B0BDCACB12A463146201D16F008
:10756400CBFA204606F018FB002002B070BD094B90
:10757400D3F80435084A009295220849042005F0FE
:10758400CDFCE8E71120F0E7C834002048330020A0
:107594004433002000B0004050E30300D3E3030071
:1075A40008B50A46002116F0D0FAFFF763FF08BDBC
:1075B4004BDF704710DF704760DF704769DF70474B
:1075C40010B588B0274B1B6813F4804F03D0264BAB
:1075D4001B68032B10DC254B0793079A06920023A4
:1075E40003930493059303A90120FFF7E7FF0446DF
:1075F40068B1204608B010BD1D4BD3F804351D4AB0
:1076040000924B221C49042005F088FCE3E7002388
:1076140004930593F8230393069A03A9A120FFF783
:10762400CDFF04460028E4D106A8FFF7C5FF0446B1
:10763400069A079B9A42DCD00A4B1B6813F4804FCE
:10764400D7D0094B1B68012BD3DD094BD3F8043584
:1076540001920A4A00926D220749022005F05EFC5D
:10766400C7E700BF4833002044330020C83200205D
:1076740000B0004094E403007BE40300A8E40300AA
:1076840000B583B002E0019803F046FC01A8FFF7BF
:107694008FFF0028F7D003B05DF804FB00B585B078
:1076A40003901F4B1B6813F4804F03D01D4B1B68C2
:1076B400032B1FDC1C4903A8FFF77CFF0346A8B972
:1076C4001A4BE02283F8162393F816335B09012B37
:1076D40020D9042B21D0164B9B68B3B1144A1368EC
:1076E40043F480031360FFF76BFF0346184605B0AD
:1076F4005DF804FB0F4BD3F804350F4A0092752252
:107704000E49042005F00AFCD4E7084B4FF480022C
:107714001A60E8E742F20203E8E742F20203E5E70F
:107724004833002044330020ED7A020000E100E0F9
:10773400406A002000B00040E4E403007BE403005E
:1077440008B50123002203494968034811F0A8FB46
:1077540008BD00BFF0340020E436002008B50378EB
:10776400072B10D00A2B19D0022B00D008BD114BC7
:107774001B782BB1104B1B68002BF7D09847F5E70B
:10778400FFF7DEFFF2E710220B4B99680B4811F06C
:1077940011FC0028EAD010F0D8F8E7E78168C06847
:1077A40008F0C9FA18B9034B01221A70DEE710F089
:1077B400CCF8F8E7EC340020F0340020E436002064
:1077C40010B586B00446194A03AB07CA03C323F8AD
:1077D400022B120C1A70164B94E8070083E807007A
:1077E4000AB31449144811F03FFB034610B118467C
:1077F40006B010BD114B009303AB0E4A0E4910485E
:1078040011F0EEFA03460028F1D10E4812F0B4FE4E
:1078140001460B4811F010FB03460028E7D1FFF79F
:107824008FFF0346E3E70723E1E700BF00E503001A
:10783400F0340020FC340020183800206177020066
:10784400E43600201C35002008B5064B1B683BB10C
:107854000EF0BEFE002803DB024B1B689847F7E7D7
:1078640008BD00BF5838002010B50C46144B1860F2
:10787400144A0121144810F095FBA0B9610CE003EF
:1078840041F26F7200238B4208BF824210D24FF440
:107894007A72002315F0E4FF014600220B4810F031
:1078A40097FB38B910BD0A4A462110F05CF8E5E7A9
:1078B4000521F2E7064A472110F055F8F2E700BF28
:1078C400583800204D7802000CE503005C38002095
:1078D40010E5030008B50D4B1B6873B14FF0A042CF
:1078E400D2F804350A4909684B40C2F80435074AFE
:1078F4001368013B136023B108BD002010F025F884
:10790400ECE7044810F082FBF6E700BF7C38002067
:10791400803800208438002039B9012303FA00F0AC
:107924004FF0A043C3F808057047012303FA00F0A1
:107934004FF0A043C3F80C05704721B94FF0A043A2
:10794400C3F8080570474FF0A043C3F80C0570470F
:1079540012B11346132900D8704770B5114A10604C
:107964005B00013B104A136000264D0CCC034FF41E
:107974007A72002314F5FA7045F1000115F070FFD6
:1079840032460146094810F023FB48B94FF0A042A3
:10799400D2F804350349096823EA0103C2F804351F
:1079A40070BD00BF803800207C380020843800205F
:1079B40008B511230BE04FF0A04103F5E07203205A
:1079C40041F8220001229A40C1F808250133142B02
:1079D400F1D9054A0121054810F0E4FA00B908BDBF
:1079E4000FF0B3FFFBE700BFD97802005CE50300AA
:1079F400F0B1104A1060002309E00F4AD25C02F58E
:107A0400E0724FF0A0410D4841F822000133032BEE
:107A1400F3D90B4B4FF00042C3F804230020C3F802
:107A24007C01084BE02283F8062340221A60704749
:107A34000E207047A438002060E503000C0003000A
:107A44000060004000E100E010B50024144BC3F8CE
:107A54007C410EE043F23333994208D9114BD3F8F9
:107A64000425114B1A60114B1B68204698470134BA
:107A7400E4B2032C12D84FF0A043D3F810250C4BDA
:107A8400195D01238B409343F1D0074B1B68054AD2
:107A9400D2F80425991ADDD5D11ADBE710BD00BF51
:107AA4000060004000B00040A8380020A438002046
:107AB40060E50300082A10D838B51446054616F0C8
:107AC4001BF8C4F108020021281916F03EF8044BF3
:107AD40003CBA860E960002038BD0920704700BFCF
:107AE400600000100620704700B587B041F2010322
:107AF400984245D020D944F20103984256D044F22A
:107B0400020398426DD1454B1B6813F4804F1ED07D
:107B1400434B1B68002B1ADD424BD3F80435108805
:107B240003905268029201913F4A00925F223F49BA
:107B3400012005F0F3F90AE0012852D1374B1B6804
:107B440013F4804F03D0364B1B68002B0BDC4FF033
:107B5400A0434FF4F012C3F81825C3F80C25EFF333
:107B6400108372B653E02F4BD3F80435029201917F
:107B74002F4A009254222D49012005F0CFF9E6E75F
:107B8400264B1B6813F4804FE1D0254B1B68002B58
:107B9400DDDD244BD3F8043502920191254A00928D
:107BA40057222249012005F0B9F9D0E71B4B1B6885
:107BB40013F4804FCBD01A4B1B68002BC7DD194B35
:107BC400D3F80435106804905068039002919268C9
:107BD4000192194A009269221449012005F09EF984
:107BE400B5E70E4B1B6813F4804FB0D00C4B1B68E9
:107BF400002BACDD0B4BD3F8043501910F4A0092F6
:107C04006D220A49012005F089F9A0E730BF0C4B29
:107C14001B78002BFAD107B05DF804FB4833002031
:107C24004433002000B00040F4E50300A3E5030062
:107C3400B4E50300D0E5030014E6030038E60300CE
:107C4400F432002000B583B00023ADF80030054BBA
:107C540001936A46014644F20200FFF745FF03B070
:107C64005DF804FB70DD030010B40346044C0068A7
:107C740059689A68DB680FC45DF8044B704700BF0D
:107C8400AC380020064B074A92E8030083E803005F
:107C94000833443292E8030083E80300704700BFCE
:107CA400AC3800206000001000487047AC38002059
:107CB400002308E0074901EBC30000224280426030
:107CC40001F8332001331F2BF4D9034B00221A602F
:107CD400704700BFBC380020BC39002030B40546D2
:107CE4000F4B1B6800240AE01F230E4A12F83300CE
:107CF400A0B102EBC3025288AA4207D001341F2C60
:107D04000BD85A1E002BEFD01346EEE7054A02EBC0
:107D1400C30252688A42F1D100E0002030BC7047AF
:107D2400BC390020BC38002030B40A4A13680A4C1D
:107D340004EBC30568806960012104F833100B4427
:107D44001360202B01D030BC7047134600221A6008
:107D5400F9E700BFBC390020BC380020C0F30C0395
:107D64008B4202D3C91A08447047C91A0844A0F5C3
:107D740000507047C37D002B42D083780A7802F00C
:107D8400800203F07F0313430B7002780B7803F037
:107D94007F0343EAC2130B700378002B41D030B445
:107DA4004378082B14BF002201224B7803F07F0391
:107DB40043EAC2134B70858803F08003C5F386142D
:107DC40023434B708A7802F0030242EA8502D2B25E
:107DD4008A70857902F0FC02C5F3C10422438A70DB
:107DE400CB7803F01F0343EA4513DBB2CB70C279AF
:107DF40003F0E00302F01F021343CB7030BC704762
:107E040083780A7802F0BF029B0103F04003134316
:107E14000B70C27803F0C00302F03F0213430B70EF
:107E2400B3E770470023032B22DC10B402E00133D4
:107E3400032B19DC0F4C6C2202FB034292F8442002
:107E4400012AF4D16C2202FB0342948AC28994422F
:107E5400EDD1084C6C2202FB034292888A42E6D19F
:107E64006C2202FB034000E000205DF8044B7047E5
:107E740000207047343A0020002300E00133032B34
:107E840013DC0B496C2202FB031292F84420022AF1
:107E9400F4D16C2202FB0312918A828A9142EDD1C1
:107EA40003486C2202FB030070470020704700BFA8
:107EB400343A002008B108207047042070470000BD
:107EC40038B505460C46CB695B78C370CB691B7823
:107ED40083F001038370CB694362087B022814D0CA
:107EE400FFF7E8FF6870E27A32B9A18AC0F10F03A4
:107EF400994201DC082831D0A18A0346C0F10F0061
:107F0400814207DC42B3012205E0154B987DFFF75F
:107F1400D1FFE7E701222A7062B1A28A13440B332E
:107F2400104A82FB0312DB17C3EB6203013BEB71C4
:107F34000023AB710023EB7505F10C0294E80300F8
:107F440082E80300A2692A622289AA82A27AAA7517
:107F5400226AAA62184638BD0022DCE70720FAE745
:107F64001C3A0020ABAAAA2A30B403460C4609786E
:107F7400817000214162A1680B2903D8217BF1B1F2
:107F8400012100E0012119700020587029B1A16875
:107F94000731C9080139D97198710121D97503F1E3
:107FA4000C0504F1100103C985E80300E1899982F5
:107FB400A1691962217F99759A6230BC70470021CA
:107FC400E1E700000021164B1B688B4226D90023F1
:107FD400144A02EBC10252689A421DD910B4114AE4
:107FE40052F8312002EBC30412F8332082420DD040
:107FF40001330C4A02EBC10252689A42EFD80131B4
:10800400074B1B688B4205D90023F2E760685DF8D3
:10801400044B70470020FAE70131D4E70020704791
:10802400C0390020C439002070B58CB006460D4616
:1080340014462C22002101A815F087FD0E238DF88B
:108044000430ADF808604FF0000365F300038DF8C9
:108054000A308DF80B4001A801F0F8F80CB070BD9F
:1080640030B58DB005460C462C22002101A815F030
:108074006CFD0F238DF8043002958DF80C4001A897
:1080840001F0E4F80DB030BD00B58DB048B913F17E
:10809400020F06D001228DF80420029301A801F0FA
:1080A400D5F8034B186803F0FDFE0DB05DF804FB32
:1080B400D03900202DE9F041054688460378BBB14C
:1080C4000D4B1C68621C1A6004F00704AB8A0B4F4A
:1080D40007EBC4067380A988A869FFF73FFE7060A8
:1080E400EB6903F00103737007F83480BDE8F08195
:1080F4007846FFF7A7FDE3E7183A0020D8390020B7
:1081040070B5064603784BB1B58A347F04F0010498
:10811400B188B069FFF722FE002304E07846FFF738
:1081240091FDF1E70133072B15D80C4A02EBC3028A
:1081340052688242F6D1094A02EBC3025288AA422B
:10814400F0D1064A02EBC3025278A242EAD10348B4
:1081540000EBC30000E0002070BD00BFD839002050
:10816400F0B40D684C688F68CE68D56014615761AF
:1081740096610D694C69D56114620378DB0913704B
:10818400D17DF9B1037803F07F039370002353701A
:1081940013789BB143789B0103F4FE53817843EA3F
:1081A400910393808378DB0003F01803C17843EADA
:1081B40051139371C37803F01F03D37100235362E7
:1081C400F0BC70470178C1F380119170017801F01F
:1081D4003F01D17043B190F90130002B02DB04233D
:1081E4005370D5E70823FBE704235370D0E770B539
:1081F4000C461E4603788BB104252A44A26000F184
:108204000C032360836A6360204604F0ADF90246E0
:1082140010B923691D443560104670BD0125ECE793
:108224002DE9F0418EB00D4616461C4680460028C6
:108234002DD0002D2FD0002C31D0636A023305934A
:1082440004F10C00A378002B2DD00121627801AF3A
:108254003B46082A14BF0022012203F068FF069758
:10826400CDF81C80B2B2ADF820200B9515440C95C6
:1082740063788DF83430237B022B16D00023ADF8BD
:10828400283005A803F04BFF0EB0BDE8F081784616
:10829400FFF7D8FCCDE77846FFF7D4FCCBE7784668
:1082A400FFF7D0FCC9E70221D0E723692BB123698A
:1082B40009931023ADF82830E3E77846FFF7C2FCB2
:1082C400F5E72DE9F04186B004460D46C37D002B49
:1082D4003ED0082605FB06F8E379AB423AD0A571F7
:1082E4006B46324601A92046FFF781FF074648BB8B
:1082F4004DB994F84F3033B9A369C3F30C03A38089
:10830400012384F84F30E37D7BB994F84E3063B990
:108314002DBBB4F84610627823468A1AA16E08462B
:10832400FFF77EFF012384F84E3005992046FFF7BE
:1083340021FDA16E32464144009815F0DDFB01A8F1
:1083440004F02CF9B7FA87F0400906B0BDE8F081D3
:108354000C26BFE7B4F84660A6EB0806BFE77846EC
:10836400FFF770FCD5E770B5054690F84C40002641
:1083740005E00136631C85F84C300134E4B2EB7936
:10838400A3420AD3AA6C0123A3401A42F5D1214681
:108394002846FFF796FF0028EBD1304670BDF0B5B4
:1083A40087B045781544C37DDBB10B239D4221D8AA
:1083B40016460F4604466B462A4601A9FFF717FFE7
:1083C4000546C0B905992046FFF7D4FCE37D53B1B7
:1083D40032463946009815F08FFB01A804F0DEF808
:1083E40009E00F23E2E72346324600993846FFF7B7
:1083F40017FFF2E70925284607B0F0BD10B504467B
:1084040090F84430012B0ED1237B012B0FD00C4B61
:10841400DB68A36303F0A0F8A16B014404F12C0012
:1084240003F02AF810BD7846FFF70CFCECE7A37DB7
:10843400034AD168126902FB0313A363EAE700BF8E
:108444001C3A002038B5002400E00134032C13D872
:108454000A4A6C2303FB042393F84430012BF4D120
:108464006C2505FB04252846FFF77DFF0028ECD08A
:108474002846FFF7C3FFE8E738BD00BF343A0020C1
:1084840038B5044690F84430022B02D07846FFF702
:10849400D9FB054B1D6803F05FF8411904F12C006A
:1084A40002F0EAFF38BD00BF1C3A002038B504468C
:1084B40090F84430022B02D07846FFF7C3FB084BF8
:1084C4005D7D5A689B6803FB052503F045F8411957
:1084D40004F14C0002F0D0FF012384F8643038BD6D
:1084E4001C3A002010B504460D4B1B68806E98475B
:1084F40004F12C0002F0A8FF94F84430022B0AD0B7
:108504006C220021204615F020FB002084F8440052
:1085140002F078F810BD04F14C0002F095FFEFE78B
:10852400D439002010B504460121FFF7C3FD2046CD
:10853400FFF7D8FF10BD10B58CB0044690F8443056
:10854400012B02D07846FFF77DFB01238DF8043020
:10855400236D029301A800F079FE2046FFF7C2FFC5
:108564000CB010BD2DE9F04104460E4615461F46D9
:10857400531EDBB2012B46D8A36E13B17846FFF726
:1085840061FB2E4B1B6838469847A066002852D0E2
:108594003346224606F12001D3F80080D3F804E0E4
:1085A400D3F808C0D868C2F80080C2F804E0C2F862
:1085B40008C0D060103310328B42EDD1186859686E
:1085C4009B681060516093600023A364A4F8467014
:1085D400B188B069FFF7C2FBA061012D17D06FF01D
:1085E4000103A362002384F86430154B6365E465DA
:1085F400144B6363E463012002F004F884F84450EC
:108604000120BDE8F0817846FFF71CFBB4E70E4B70
:108614001B7D84F84D30002384F84E3084F84F30AD
:1086240084F84C30B36A23656FF00103A362074BEF
:108634006363E463DFE70020E3E700BFCC39002095
:1086440093910200798702001C3A0020858702007A
:1086540030B583B0C3790133C27D92B1082505FBDF
:1086640003F582B14FF48073AB422AD21E4B1B68D0
:1086740013F0040F36D01D4B1B68002B06DC0024BE
:108684002DE00C25EBE74FF4C073EDE7184BD3F85E
:1086940004350195174A009240F2632216490120DD
:1086A40004F03CFC00241AE0144C6C2303FB024449
:1086B4002B46022201462046FFF754FF78B90024D6
:1086C4000DE00022032A09DC0C4B6C2404FB023469
:1086D40094F84430002BE7D00132F3E7002420461D
:1086E40003B030BD0024FAE74833002044330020AF
:1086F40000B00040C0E60300B1E60300343A0020B5
:1087040030B585B00D460446A8B100212046FFF7D8
:10871400D1FC2946206DFFF7A3FC2046FFF7E2FEBB
:108724000F4B1B6813F0040F03D00E4B1B68032B75
:1087340005DC05B030BD7846FFF784FAE5E70A4B5F
:10874400D3F8043594F8442002950192074A009224
:108754004FF4D6720649042004F0E0FBE9E700BFB9
:10876400483300204433002000B0004054E60300A6
:10877400B1E6030008B508460021FFF7C1FF08BDB4
:1087840010B50C4691F84430012B09D194F84D30C2
:108794007BB9237B012B07D02046FFF7CCFE10BD0D
:1087A4007846FFF74FFAF1E701212046FFF7A8FFCB
:1087B400F5E7013B84F84D30002384F84C30204623
:1087C400FFF7D1FDEBE70000062900D0704770B534
:1087D40082B003460178890101F4FE5140789D7806
:1087E400DC78240444EA05641D7944EA05245B79B1
:1087F4001C4341EA90011046FFF714FB0546B8B14B
:10880400866C2643866444B3037853B3EB795A1CCD
:1088140001239340013B9E4227D0002385F84C302E
:108824002846FFF7A0FD2846FFF7E8FD02B070BD1B
:10883400104B1B6813F0040FF8D00F4B1B68012B6F
:10884400F4DD0E4BD3F804350D4A009240F2B942E0
:108854000C49022004F062FBE8E70321FFF750FF14
:10886400E4E77846FFF7EEF9D0E72846FFF763FE22
:10887400DCE700BF483300204433002000B0004050
:10888400D4E60300B1E603002DE9F04389B0804645
:108894000F4614461E4695780DB32846FFF792FB03
:1088A4008146C8B18DF80050236A0693A38AADF8B7
:1088B4000E3004AB04F10C0292E8030083E80300D9
:1088C400A37D8DF81C30CDF80480029723788DF8B1
:1088D4000C3031466846C84709B0BDE8F083FFF75D
:1088E40073FFF9E700B585B000238DF80F3098B118
:1088F4000346084602330B600DF10F0103F013FC2D
:108904009DF80F3043B10D4B1B6813F0040F03D0D7
:108914000B4B1B68032B04DC9DF80F0005B05DF8BE
:1089240004FB084BD3F80435074A009240F2EB22CB
:108934000649042004F0F2FAEEE700BF48330020B1
:108944004433002000B0004014E70300B1E6030004
:108954002DE9F0438FB004460E4615461F46D0F865
:108964001890037823B181884846FFF7F7F9A0618E
:1089740004F10C00A378002B3AD0012162780DF1A8
:1089840028084346082A14BF0022012203F0CFFB23
:10899400C4F81890CDF8088003966378EA1A92B266
:1089A400ADF810203244089207978DF82430002344
:1089B400ADF81830237B022B1CD0A3786BB3237B38
:1089C400022B1BD02546002345F8243F2A46E17894
:1089D400206A0BF0ADFF606A98B101A9FFF782FF2E
:1089E40000283AD12A46E178206A0BF0A1FFF2E789
:1089F4000221C3E71023ADF81830DEE7236905939D
:108A0400E0E7237B022B2CD104F10C01E0890CF06C
:108A14003DF80028D3D1052020E000236362237BA6
:108A2400012B0DD02146002341F8243FA08A0BF0EE
:108A34009CFF01A9606AFFF755FFA0B100200DE07B
:108A440004F12401E0890BF090FF01A9606AFFF7AB
:108A540049FF0028E6D0002000E000200FB0BDE868
:108A6400F0830520FAE70520F8E7000070B5F0B0C0
:108A74000D4614461E4610AB0A4601462046FFF733
:108A840067FFA0B11F4B1B6813F0040F37D01E4BB8
:108A94001B68052B33DD1D4BD3F804351C4A0092AB
:108AA4004FF4A5621B49062004F038FA27E003AB13
:108AB40001228DF80C20A28AADF80E200022049227
:108AC4008DF8142010AA06926278AD1AADF81C50E5
:108AD40008AA93E8030082E803000AAB04F10C023D
:108AE40092E8030083E80300A37D8DF83830236AFD
:108AF4000C93636A0D930F9605A800F0A7FB70B062
:108B040070BD00BF483300204433002000B0004053
:108B140038E70300B1E6030010B5D47D14B9FFF7BC
:108B2400A5FF10BDFFF7B0FEFBE700002DE9F04301
:108B340085B004AF43781344C47D94B14FF480747A
:108B44009C4273D3EFF3108C72B60024032C10DC18
:108B54003B4E6C2505FB046595F8445025B1013462
:108B6400F4E74FF4C074EBE735466C2606FB045477
:108B740000E00024BCF1000F00D162B6002C5AD0F2
:108B840015460E46014601222046FFF7EBFC00285D
:108B940053D02A463146A06E14F0AEFF294B1B6811
:108BA40013F0040F3AD0284B1B68032B36DD6D46B7
:108BB400B4F846E04FEA4E030833DB08A5EBC303E1
:108BC4009D460DF11008C446002312E0A26ED25C4B
:108BD4004FEA121959001D48066816F809600CF886
:108BE400136002F00F0201310068825C0CF801206E
:108BF40001337345EAD3002308F81E30144BD3F82D
:108C04000435CDF80880134A0192134A009240F2C9
:108C1400F7321249042004F081F9AD462046FFF7EB
:108C2400A2FB2046FFF7EAFB002000E009200437FE
:108C3400BD46BDE8F0830420F9E70420F7E700BF50
:108C4400343A002048330020443300204C330020C1
:108C540000B0004004E70300C8E20300B1E60300EB
:108C640070B504460D461646808A01F091FF01282E
:108C74001AD1237BD3B1022B0BD094F91630002BDD
:108C840016DB237853B9324629462046FFF787FB83
:108C94000BE02369002BF0D1102006E03246294670
:108CA4002046FFF743FF00E0102070BD1020FCE7D2
:108CB4000720FAE708B50549054800F04FF800B960
:108CC40008BD7846FEF7BEFFFAE700BFC9D9030026
:108CD40035D9030010B5FFF7EDFF4FF4D87200212A
:108CE400134814F032FF05F0AFFA0024114B1C6056
:108CF40040222146104814F028FF104B104A1A60F5
:108D0400104A5A604CF250329A600F49D9601A6185
:108D140004221A759C7508225A750C4803F0A2F8AF
:108D24000B4B18600B4B1C600B4805F093FB10BDFC
:108D3400343A0020183A0020D83900201C3A002088
:108D440080969800F049020020A10700498F020094
:108D5400D0390020C03900208D80020008B50346B8
:108D6400B0FA80F040090A46B1FA81F14909884213
:108D740010D14BB1EFF3108072B608490B60084B69
:108D84001A6048B962B606E0002AF3D1FFF792FFF1
:108D9400002000E00E2008BD0020FCE7CC390020B4
:108DA400D4390020C0B110B58CB004460369B3B106
:108DB400C369B3B18369B3B1014601A8FFF780F871
:108DC400034610B118460CB010BDA28A216901A84F
:108DD400FFF746FF0346F5E70E23184670470E23B8
:108DE400F0E70E23EEE70E23ECE7D0B110B58CB01C
:108DF40004464068B8B1A269BAB1207C022816D0F2
:108E0400B8B194F90020002A15DB0A46214601A8CE
:108E1400FFF7AAF8A268616801A8FFF721FF0CB068
:108E240010BD0E2070470E20F9E70E20F7E7102042
:108E3400F5E71020F3E70720F1E70000037B012B9F
:108E440001D00020704710B58AB000228388C3F394
:108E540086148DF800409B008DF801300B0E8DF8C0
:108E640002300B0C8DF803300B0A8DF804308DF8AA
:108E740005100623049301238DF81830838AADF876
:108E84001A3007928DF80820CDF80CD0036A0893A5
:108E94008DF81420C389ADF81630837D43B98DF85D
:108EA40024206FF0010102A8FFF79FFF0AB010BD54
:108EB400024B5B7D8DF82430F3E700BF1C3A0020A1
:108EC40038B500240BE01E4A6C2303FB0423DB7932
:108ED4005A1C01239340013B9D4228D00134032CAA
:108EE4002CD8174A6C2303FB042393F84430022B39
:108EF400F4D16C2303FB042393F86430022BEDD1EB
:108F04006C2000FB0420816CFFF798FF0028E5D15A
:108F14000B4A6C2303FB04F3D11881F864008D6CB5
:108F2400D35C002BCFD17846FEF78CFECBE7044B05
:108F34006C2000FB0430FFF7F5FACFE738BD00BF23
:108F4400343A002008B5FFF77DFAFFF7B9FF012096
:108F540008BD00002DE9F04182B007460E461446D4
:108F640098461046FEF788FF054620B1A2888388FC
:108F74009A4210D312D82046FFF7C2F8B8B103784A
:108F84004BB123787BB1E1794B1C01219940013924
:108F94002046FFF753FF02B0BDE8F0810521FFF73B
:108FA400AFFB0025E7E77846FEF74CFEEBE7002D24
:108FB4004FD0464B1B6813F0040F03D0444B1B687F
:108FC400032B55DC2846FFF75BFA2B7B012B5DD086
:108FD400AA6CA17901238B401A42DCD11343AB6400
:108FE400A279EB799A4259D0E37D002B61D0082312
:108FF400B34260D1AB6EA079E27D002A60D0082430
:109004003246394604FB003014F076FDAC6C2B7804
:10901400002B57D0EB795A1C01239340013B9C420F
:10902400B9D1022385F86430A96C2846FFF706FFFE
:10903400044643462A46B5F84610A86EFFF76CFD71
:10904400002CA8D1002385F864302846FFF76AFA7B
:10905400A1E72046FFF7FCFA05460028A9D1002124
:109064002046FFF7EBFE02210020FEF7F9FF92E70E
:10907400184BD3F80435A2790192174A009240F2B2
:10908400A7221649042003F049FF9BE795F86430B2
:10909400002B9DD12846FFF709FA99E79BB2E27DA0
:1090A4002AB1082203FB0263A5F84630A2E70C228A
:1090B400F8E70C239CE704212846FFF721FB6AE725
:1090C4000C249DE77846FEF7BDFDA3E74833002056
:1090D4004433002000B0004028E70300B1E6030059
:1090E4002DE9F0418EB000284DD00546002A4CD021
:1090F400984614460F4600220C920D920CA96088E3
:109104000BF0C4FC20B9002630460EB0BDE8F08157
:10911400226902F00102E168208905F061F808B1D2
:109124000026F1E7226902F00102E168208905F0D6
:1091340023F80646C0B901AA21462846FFF710F8CD
:1091440004AB0EAA12E9030083E8030002F048FE10
:109154009DF8043083B1434601AA391F281DFFF747
:10916400F9FE02F05DFECFE72169002201F0010162
:109174002089FEF759FFC7E7434601AA791E681CF8
:10918400FFF7CAFCEDE70E26BEE70E26BCE710B5D6
:109194000C4691F84430022B0BD1022384F864303E
:1091A400A16C2046FFF74AFE10B9002384F864300E
:1091B40010BD7846FEF746FDEFE70000F8B500B3B2
:1091C4000546164B1F68F7B90E463C46B4420ED20C
:1091D40005EBC4035B68CBB115F8340010F0800FC5
:1091E40016D1B8B1FEF7EEFEB0B90134EEE70C4B80
:1091F40043F8375003EBC7035E607B1C074A1360D8
:1092040002E00E2700E004273846F8BD0E27FBE7EE
:109214000B27F9E70F27F7E70F27F5E7C0390020F9
:10922400C4390020084B196861B110B501E021462A
:109234003CB10C680B79002BF9D0034803F0D7FD3F
:10924400F5E710BD704700BFE83B002038B5054680
:1092540030B1104B1C68ACB10F4B01221A7004E002
:109264007846FEF7EFFCF4E724683CB12379002B41
:10927400FAD154F8043C28469847F5E7064B1B7886
:10928400022B00D038BDFFF7CDFF034B00221A702C
:10929400F8E700BFE83B0020E43B002010B504469B
:1092A40030B100232372211D034803F075FD10BD66
:1092B4007846FEF7C7FCF4E7E83B002010B5044607
:1092C40050B10A4B1B78013BDBB2012B08D9211D9D
:1092D400074803F08CFD10BD7846FEF7B3FCF0E7B9
:1092E400024B02221A7001232372F4E7E43B0020AC
:1092F400E83B00200A8883689B5A07339BB223F01B
:10930400030313449BB20288043A934200D9002316
:109314000B80704710B582B004468368CB1A02A94B
:1093240021F8023DFFF7E6FFBDF80630A0681844B7
:1093340002B010BD0088043880B270474388826848
:10934400D018D15201238370704782680023937030
:10935400438083807047073189B221F0030189B2C9
:10936400428883889A4204D29B1A99421CDC0020CA
:10937400704710B59A420FD90488A41AA14215D98E
:109384008B4215D3032C03D98368134404229A70A7
:1093940000234380184606E0826813449B784BB947
:1093A400FFF7D3FF002010BD042070470020FAE728
:1093B4000420F8E70420F6E738B504460D46836830
:1093C400828813448B4202D07846FEF73BFC00238C
:1093D400AB70211D2046FFF78DFFA288A3681344BC
:1093E4009B78042B00D038BD0023A380FBE710B585
:1093F4000C468368428813448B4202D07846FEF7B9
:1094040021FC0023A37010BD70B5064615460C461A
:10941400002944D0002E46D0B4F1005F08D94FF0A3
:109424008053D3F80C3103F50023B4EB832F0ED310
:10943400B4F5000F08D94FF08053D3F80C3103F57D
:109444000053B4EB832F02D37846FEF7FBFB6B1E6D
:109454002344B3F1005F08D94FF08052D2F80C21B5
:1094640002F50022B3EB822F0ED3B3F5000F08D917
:109474004FF08052D2F80C2102F50052B3EB822F48
:1094840002D37846FEF7DEFB042D10D93580002385
:109494007380B380B460043D2580A37070BD7846AA
:1094A400FEF7D0FBB6E77846FEF7CCFBB4E7784688
:1094B400FEF7C8FBEAE738B50446A0B16288A368A2
:1094C40013449B78012B12D0A388A1681944EFF3AD
:1094D400108572B68B78032B0DD02046FFF735FF2D
:1094E40005B962B638BD7846FEF7ACFBE6E77846C8
:1094F400FEF7A8FBE8E72046FFF70CFFA368C31AB2
:10950400638000238370EBE7F8B50E4615460446E6
:10951400C0B1DEB16288A36813449B78012B19D0D3
:10952400E5B12046FFF706FFA84219D32946204695
:10953400FFF711FF0746A0B929462046FFF7FEFEB4
:1095440030600EE07846FEF77DFBE2E77846FEF7F2
:1095540079FBDFE77846FEF775FBE1E7092700E0D2
:1095640009273846F8BD70B50C4616460546B8B10D
:10957400D4B1A378012B1BD12388B3421CD3FEB1F1
:1095840026800223A370E9182846FFF7B3FE6A88F1
:10959400AB889A4203D0AB68134400229A7070BD22
:1095A4007846FEF74FFBE3E77846FEF74BFBE0E730
:1095B4007846FEF747FBDFE77846FEF743FBDEE736
:1095C4007846FEF73FFBDBE738B50D46044668B145
:1095D40085B1A288A36813449A78042A0ED09A7895
:1095E400022A13D0032A16D0052013E07846FEF78A
:1095F40029FBEDE77846FEF725FBEAE7211D204627
:10960400FFF778FEA288A3681344E8E703229A7060
:109614002B60002038BD7846FEF714FB0020F9E7E4
:1096240010B5044658B1A088A16801448B78042B76
:1096340009D08878022814BF0020012010BD784684
:10964400FEF700FBEFE72046FFF764FE0146F0E774
:1096540010B5044618B1A088A168014407E0784613
:10966400FEF7F0FAF7E72046FFF754FE0146887844
:10967400C31EDBB2012BF6D9022814BF002001203F
:1096840010BD38B50C46054650B16CB1A378012B1A
:109694000ED0032B11D121462846FFF78DFE38BD8D
:1096A4007846FEF7CFFAF0E77846FEF7CBFAEDE717
:1096B40021462846FFF79BFEF1E77846FEF7C2FAFB
:1096C400EDE7000008B5064B986800221A605A605E
:1096D4009A60DA601A615A619A6104F0A3FB08BDCA
:1096E400EC3B002000B585B00A4BDB6802228DF804
:1096F400002001934FF480530293074A69460120E6
:1097040001F0AAF918B1002005B05DF804FB0120AE
:10971400FAE700BFEC3B0020083C002000B585B010
:109724000A4B1B6802228DF8002001934FF48053EA
:109734000293074A6946012001F08EF918B100200E
:1097440005B05DF804FB0120FAE700BF0C3C0020E3
:10975400083C0020164BDA68137951795B1A03F53B
:109764007F2303F6FF7302EB03339A4205D002F51D
:1097740080520F4BDA600320704700B585B00D4B63
:109784001B6801208DF8000001930B4B0393042305
:1097940002930A4A694601F05FF918B1002005B046
:1097A4005DF804FB024B01221A760220F7E700BFA2
:1097B400EC3B00200C3C0020103C0020083C002026
:1097C40000B585B00C4BDA680C4B1B6804330120E0
:1097D4008DF800000192039340F6FC730293084A4B
:1097E400694601F039F928B90120034B187605B010
:1097F4005DF804FB0020FAE7EC3B00200C3C002061
:10980400083C002000B585B00A4B1B6801208DF888
:1098140000000193084B039304230293074A69460B
:1098240001F01AF918B1002005B05DF804FB01201D
:10983400FAE700BF0C3C0020F83B0020083C002065
:1098440010B584B0114BDA681478114B1B680433DB
:1098540001208DF800000193039202940D4A694699
:1098640001F0FAF880B90A4B1B6804F0FC041C44AC
:109874000434064B5C61D9680A780A441A610022F0
:109884005A76012004B010BD0020FBE7EC3B002019
:109894000C3C0020083C002008B50023092B09D803
:1098A400064A52F82320824201D00133F6E7044AE3
:1098B400536002E07846FEF7C5F908BD64E703008B
:1098C400EC3B002010B5214BDB6853B11F4B1B7ED2
:1098D4005BB91E4B5B68092B15D97846FEF7B2F9C4
:1098E40011E07846FEF7AEF9F0E77846FEF7AAF9FC
:1098F400EFE7164B00225A60012C01D0032C23D130
:10990400124B1B7E03BB114B5A68114B53F8223088
:109914009847044602280DD00328EAD00128EBD149
:109924000A4A536801335360092BE5D97846FEF798
:1099340089F9E1E7054B1B7E1BB1044B02221A7027
:10994400DAE7FFF7BFFED7E710BD00BFEC3B00200E
:1099540064E70300104B1B681B685A1E12F1030FC7
:1099640018D8C3F30B020AB10020704710B50B4A94
:10997400D36000231376537601241470936008484F
:10998400FFF78AFF0749204601F054F8FFF79AFFD2
:10999400204610BD002070470C3C0020EC3B00200A
:1099A400E9960200AD99020008B50B78032B06D0A6
:1099B4000B4B1B78012B06D0022B0BD008BD084B98
:1099C40000221A76F4E7064B1B7E002BF6D1FFF734
:1099D40079FFF3E70B78032BF0D1FFF773FEEDE784
:1099E400EC3B002000B585B0174BDB6818784FF6C8
:1099F400FF7203F58051184404F0E2FCF0B1024612
:109A0400114BD9680B780B44984219D00E4B5B7EEE
:109A140093B10E4B01208DF80000019203930423AF
:109A240002930B4A694601F017F858B90120064B16
:109A3400187605B05DF804FB064BEBE70120F8E768
:109A44000120F6E70020F4E7EC3B0020A0E9030046
:109A5400083C00209CE9030008B5104BDB6818782B
:109A6400002203F58051184404F0AAFC08B1012037
:109A740008BD0A4BDA68137951795B1A03F57F2321
:109A840003F6FF7302EB03339A4205D002F58052CA
:109A9400024BDA600320EBE70220E9E7EC3B00200D
:109AA400F0B585B0524BDE6872793379591E8A421B
:109AB40000F0968006F580510D780D444D490968F3
:109AC400081D0F7907449B1A03F57F2303F6FF73E0
:109AD4001B0303F580531E446B88013B9BB247F67E
:109AE400FE6293425CD92C4616E07846FEF7AAF84B
:109AF40015E024F47F6424F00F0404F580542378E3
:109B04001C44A64247D9A54247D26388013B9BB275
:109B140047F6FE62934211D92388002BE5D02388AF
:109B240004EB830323F47F6222F00F029342E0D01C
:109B34006288B2F5FE4FDCD01C46E2E725462FE0F2
:109B44007846FEF77FF815E024F47F6424F00F04D0
:109B540004F5805423781C44A64220D9A5423BD264
:109B64006388013B9BB247F6FE62934211D9238876
:109B7400002BE5D0238804EB830323F47F6222F0D7
:109B84000F029342E0D06288B2F5FE4FDCD01C464F
:109B9400E2E7254604E0002502E0002500E0002578
:109BA400E5B1144B19686A8801F58051384604F010
:109BB40007FC0746B8B101200D4B18768DF800005C
:109BC40001950D4B0393042302930C4A694600F05C
:109BD40043FF50B92C46CAE70025E1E7012000E025
:109BE400012005B0F0BD0120FBE70020F9E700BF2C
:109BF400EC3B00200C3C002098E90300083C0020CA
:109C04002DE9F04186B06A4B1B692BB1684B5B6947
:109C140033B14FF0000848E07846FEF713F8F5E753
:109C24007846FEF70FF8F4E77846FEF70BF815E0F0
:109C340025F47F6525F00F0505F580552B781D4427
:109C4400AE421CD9AC421ED26B88013B9BB247F694
:109C5400FE62934211D92B88002BE5D02B8805EBAB
:109C6400830323F47F6222F00F029342E0D06A88D8
:109C7400B2F5FE4FDCD01D46E2E72C4600E000249E
:109C84001CB1009445E00024FAE700230093019BF3
:109C9400002B68D14FF0010824B1628847F6FF73A6
:109CA4009A4202D1424B01225A76414B5B7E002BF1
:109CB4007AD1B8F1000F75D13D4B5A6922F47F6710
:109CC40027F00F07BF1A07F580571C69DE68337940
:109CD40072799B1A03F57F2303F6FF731B0303F5C5
:109CE40080531E44002301936388013B9BB247F6D3
:109CF400FE629342C5D92546ADE77846FDF7A2FF3B
:109D040022E024F47F6424F00F0404F580542378C3
:109D14001C44A642BBD92388019A02EB83029742D2
:109D2400B5D9009B634023F47F6323F00F03002B1A
:109D3400ADD16388013B9BB247F6FE618B42A6D846
:109D440001922388002BD8D0238804EB830323F4C7
:109D54007F6222F00F029342D3D06288B2F5FE4FA5
:109D6400CFD01C46D5E7124A526901208DF808006D
:109D74000392009A059204930E4A02A900F06CFE25
:109D840070B90B49019B23F003024B6913444B61E7
:109D940014B1074B1C617FE77846FDF753FFF8E7E2
:109DA400002002E0012000E0012006B0BDE8F081BF
:109DB400EC3B0020083C002008B54FF010235B6901
:109DC400B3F1FF3F03D04FF010235B6963B94FF049
:109DD40080525169136903FB01F3A3F58053054ACB
:109DE4001360FFF7B7FD08BD4FF010235B69A3F5BF
:109DF4008053F2E70C3C0020024B1878003018BF67
:109E040001207047EC3B002010B504460E4B1B7834
:109E1400ABB92378032B02D07846FDF713FF0A4B26
:109E24009C60E268DA6000225A601A760120187099
:109E34005A76064900F0FEFDFFF744FD10BD784652
:109E4400FDF700FFE5E700BFEC3B0020AD99020001
:109E5400014B1868704700BF0C3C002010B5044645
:109E640080B163681BB123680BB1A36813B978464A
:109E7400FDF7E8FEA3685A1E134207D10023E360EE
:109E8400236110BD7846FDF7DDFEEAE77846FDF76D
:109E9400D9FEF3E7F8B5F8B10446F9B18268FAB12E
:109EA400EFF3108572B6026980680244E668B24234
:109EB40003D1C5B962B6042513E027686368013885
:109EC40030401A4600FB037013F016FEE3680133BA
:109ED400E36055B962B604E00E2502E00E2500E009
:109EE40009252846F8BD0425FBE70025F9E770B5E8
:109EF400F0B104468268EAB1EFF3108572B60669E0
:109F0400C268964210D0084621686268A368013B83
:109F14001E4006FB021108B113F0EEFD2369013364
:109F2400236165B962B606E03DB962B6052502E073
:109F34000E2500E00925284670BD0525FBE7002510
:109F4400F9E70000C0F30B0333BB39B301F6FF712B
:109F5400090B134B0222C3F80425114BD3F8003428
:109F6400002BFAD000220AE00D4BC3F808050C4B75
:109F7400D3F80034002BFAD000F5805001328A4225
:109F8400F2D3074B0022C3F80425054BD3F8003461
:109F9400002BFAD00020704710207047092070472A
:109FA40000E0014010F0030F2FD111F0030F2FD167
:109FB40082B312F0030F2FD110B49208174B01246F
:109FC400C3F80445154BD3F80034002BFAD002E053
:109FD400043004312246541E52B10B68B3F1FF3FE2
:109FE400F6D003600D4BD3F80034002BFAD0EFE722
:109FF4000A4B0021C3F80415084BD3F80034002B96
:10A00400FAD010465DF8044B704710221046704792
:10A014001022FBE70922F9E70922F7E700E00140F3
:10A0240001800023438042607047000038B5124C21
:10A034004FF480552A460021204613F086FD0F4B2D
:10A044001C600AE0002228212046FFF7E9FF23884C
:10A05400083323446360303D1C46502DF2D8083D3C
:10A0640005D00022A9B22046FFF7DAFF38BD7846B2
:10A07400FDF7E8FDF5E700BF143C0020144C002078
:10A0840008B508220221084803F04DFD38B1074AFB
:10A0940091684160127B027203F07EFD08BD0448A2
:10A0A40003F098FEFAE700BF204C00206C4C00201F
:10A0B400083300200E4B1B78CBB910B50D4B5C68F0
:10A0C40004F50054B4F1807F00D910BD04220121AD
:10A0D400094803F028FD30B14460054A012111709C
:10A0E40003F05AFDF1E7054803F074FEEDE770470D
:10A0F400804C00206C4C0020204C0020F8320020C2
:10A1040010B5044608B1A04710BD7846FDF79AFD86
:10A11400F9E7000008B501210C4803F065FD20B9FA
:10A1240002210A4803F060FD28B1094803F052FEF9
:10A13400FFF7C0FF08BD074A002313605360936014
:10A14400D3601361044A1370F2E700BF204C00206F
:10A15400283300206C4C0020444C002000B58DB006
:10A1640004918DF8082003900CA8022300F82C3DDC
:10A17400FFF76CF80DB05DF804FB000010B58CB06F
:10A184000C4682B94B88012B20D1134B1B7833B179
:10A194006268124B5A60104B00221A7016E078461F
:10A1A400FDF750FDF4E7032A12D12C22002101A867
:10A1B40013F0CBFC10238DF804300394084BDA68B9
:10A1C40005921B69069301A8FFF740F80CB010BD77
:10A1D4007846FDF737FDE8E7804C00206C4C002002
:10A1E400204C002038B503F00DFE28B901F0C2FE62
:10A1F4000028F8D020BFF6E701F0F2FD0022114656
:10A204001A4803F0EAFB00252C4605E0051D02462A
:10A214000021164803F0E1FB30B14388012BF5D04F
:10A22400022BF4D1041DF2E7A4B19DB12268104BB6
:10A234009A6022791A73AC4201D9237993B12A68BE
:10A244000B4B1A600A4B1A685A60FFF733FF01F090
:10A25400E7FD38BD064B00221A609A601A73FFF7B7
:10A264000FFFEFE7024B00221A60EBE7204C0020BF
:10A274006C4C002008B503F007FEA0F5805008BD23
:10A2840000B587B0002300930193029303930493D2
:10A294000593FFF7EFFF009001230193064B03930F
:10A2A4006946064803F050FD10B907B05DF804FB99
:10A2B400034803F08FFDF8E781A10200204C002041
:10A2C4001833002010B50B4B00241C605C609C60AC
:10A2D400DC601C6101F040F9074B5860074A9A6042
:10A2E400074ADA601C615C61064B1C70FFF7C8FF0B
:10A2F40010BD00BF6C4C0020484C002041A402005B
:10A3040000879303814C002008B5084B1B7803B1E8
:10A3140008BD0748074B036000F0FAFD064801F04A
:10A324006DF8024B01221A70F2E700BF1C4C0020AA
:10A33400604C00206DA50200484C002038B501F0A7
:10A344004FFD174B1B7B13BB154B9B7B23BB144B44
:10A354001A8A41F282639A4204D8124B1B78A3B141
:10A36400012300E00123CBB10D4D01232B73002405
:10A374002C82AB680133AB60FFF782FEA9682A7BAD
:10A3840001392046FFF7EAFE02E00023EBE7082448
:10A3940001F046FD204638BD0824F9E70824F7E714
:10A3A4006C4C0020814C002010B501F019FD214BAC
:10A3B4005B7B9BB11F4B9B7BF3B91E4B1A8A41F20B
:10A3C40082639A4204D81C4B1B782BB1012300E012
:10A3D40001239BB1012302E00023FAE700231C467A
:10A3E4001BB3144B00225A731B7B4BB1012B0ED0B1
:10A3F4007846FDF727FC18E00023F0E70023EEE79A
:10A40400FFF79CFF88B17846FDF71CFC0DE0094B73
:10A414000020186058601873188202469968FFF784
:10A424009DFEFFF72DFEFFF745FE01F0F9FC2046E7
:10A4340010BD00BF6C4C0020814C002008B5214B9E
:10A444001B7B7BB1012B20D07846FDF7FBFB1D4A1B
:10A45400138A013313821B4B5B8A13B1013B194AE4
:10A46400538208BD174B1A8A41F282639A4204D878
:10A47400154B1B783BB1012300E00123002BE6D0F0
:10A48400FFF792FFE7E70023F8E70E4B1B8A41F240
:10A494008262934204D80C4A127872B1012200E01D
:10A4A4000122002AD3D042F2B012934207D9054BBD
:10A4B40001225A73FFF778FFCDE70022F1E7FFF797
:10A4C40073FFC4E76C4C0020814C002038B5254B49
:10A4D4001B7B002B36D10446224B5B8A33BB1AB953
:10A4E400204B9B688B4205D302B31E4B9B68013300
:10A4F4008B421BD21B4B9B682A338B4224D3194BB0
:10A504009B7B0BBB174DA9602B606B602B8242F6C3
:10A5140006526A826B732B73FFF7B2FDFFF7CAFD15
:10A524002A7BA9682046FFF719FE0DE062B10D4BA6
:10A534009B6801338B4207D10A4B01225A73FFF700
:10A5440033FF01E0012B00D038BD002AFCD1054BBC
:10A554009B688B42F8D1034B01225A73FFF724FF07
:10A56400F2E700BF6C4C00200378042B00D0704746
:10A5740043681B78002BFAD010B58468027E437EB2
:10A58400012A14BF00220122416904F11000FFF7DF
:10A594009DFF10BD10B5184B1A685B689A4225D20E
:10A5A4000446154B1B7B012B13D0144B9A4212D239
:10A5B400114B1A685B68403B9A4214D2EFF3108047
:10A5C40072B60D4A1368591C1160236090B962B6C3
:10A5D40010BD0B4BEAE7084B01225A73FFF7E4FE68
:10A5E4000028EBD1E4E7FFF765FDE7E7FFF762FD3D
:10A5F4000F20EDE70020EBE76C4C0020FFFF7F000D
:10A6040000E0FF0008B568B90C4B1B6893B10B4A16
:10A614001368013B136063B9094B00229A73FFF777
:10A62400C3FE06E0064B01229A73044A1368013301
:10A63400136008BD7846FDF705FBE8E7184C0020D9
:10A644006C4C002000B58DB0ADF808008DF81020DA
:10A6540003910CA8032300F82C3DFEF7F7FD0DB081
:10A664005DF804FB014B9868704700BF6C4C0020F8
:10A67400054B1B7B012B02D0034B98687047024BA0
:10A6840098680138704700BF6C4C0020044B9B68ED
:10A69400584010F0010F00D0013B1846704700BF2E
:10A6A4006C4C0020014B187B704700BF6C4C0020A1
:10A6B40038B50A4B1B7873B9084B01221A70084D40
:10A6C400A8602973FFF7DCFC00242C606C60FFF7A2
:10A6D400F1FC204638BD0820FCE700BF444C0020B4
:10A6E4006C4C00202DE9F041002724E02449BC23D0
:10A6F40003FB04F3CA5A0132CA520221284602F06B
:10A704004DFA01360221284602F018FA80B11C4A9B
:10A71400BC2303FB0423D3F80880B8F1000FE5D071
:10A72400BC2303FB04F3D25A01463846C047DDE795
:10A734008EB90137FFB2022F1FD83C46BC2303FB5E
:10A7440007F308330E4D1D4404350221284602F058
:10A75400F5F90026DAE70021284602F087FA0828EE
:10A76400E7D1074BBC2202FB0434A368002BE0D0E2
:10A774000022044938469847DBE70120BDE8F08110
:10A784008C4C00208CE7030008B508238373102346
:10A79400437300F11C0343610323037300F11803A3
:10A7A40003610C3002F034FA08BD000008B50378E8
:10A7B400012B06D0022B07D07846FDF743FA002080
:10A7C40001E04FF4A97008BD0048FCE7645E010095
:10A7D40008B50278012A07D0022A13D07846FDF77B
:10A7E40031FA4FF4FA7308E083685B1A98084FF45F
:10A7F400A97303FB00F303F5FA730748984228BFD3
:10A80400184608BD83685B1A180B044B03FB00F35E
:10A8140003F5FA73F1E700BFA0860100645E01004E
:10A8240010B5044601210C3002F088F9A0B10D4A9C
:10A83400C4F89C200022C4F8A0206168FFF7C8FF78
:10A84400C4F8A800C4F8AC40012384F8B83004F17B
:10A854009C000AF059FE00B910BD7846FDF7F2F9E4
:10A86400FAE700BF69A90200F8B506460C46174688
:10A8740015680378012B18D11249A1FB0431C909C9
:10A884008900B468641B8C4200D30C468CB1706898
:10A8940025F00305F168224629442844FFF782FB8A
:10A8A40058B93B681C443C60F8BD7846FDF7CAF9CA
:10A8B400E2E77846FDF7C6F9E9E77846FDF7C2F91D
:10A8C400EFE700BFEB5DF260F8B507460C461646AD
:10A8D40015680378022B16D1114BA3FB04231B0C20
:10A8E4001B03BC68641B9C4200D31C467CB1786883
:10A8F40025F0030521462844FFF724FB58B93368A3
:10A904001C443460F8BD7846FDF79CF9E4E77846CA
:10A91400FDF798F9EBE77846FDF794F9EFE700BF08
:10A92400B77609BB38B505460C4611462378012B8A
:10A9340006D0022B0FD07846FDF784F9002304E0FB
:10A94400021D2046FFF790FFA3686868984214BF71
:10A954000020012038BD021D2046FFF7B5FFA36883
:10A96400F3E700002DE9F8430F46D1F8A850234B34
:10A974001B7863B90646A5F5FA7501F10C090121A6
:10A98400484602F0DBF8804640B1002422E00AF099
:10A99400F7FD002387F8B830BDE8F8837846FDF763
:10A9A40051F9F2E70AF0ECFD0121484602F0F6F80D
:10A9B40000237B6087F8B830114B186801F072FAF5
:10A9C4003846FFF72DFFE7E74046FFF7EFFE204448
:10A9D400A8420CD82A1B41463846FFF7A3FF00289B
:10A9E400E0D100F0B9FD841BEED5341AECE70AF08F
:10A9F400C7FD3846FFF714FFCEE700BF884C0020A0
:10AA0400844C002010B5084801F02CFA074B18605C
:10AA1400002406E0064BBC2000FB0430FFF7B4FE24
:10AA24000134022CF6D910BDE9A60200844C0020A2
:10AA34008C4C002038B504460D46022805D8054B39
:10AA4400BC2202FB0434A56038BD7846FDF7FAF851
:10AA5400F5E700BF8C4C00202DE9F84306460C4670
:10AA64001746022816D8CCB12378012B1AD0022B12
:10AA74003ED16368C3F30B03002B31D1A368C3F346
:10AA84000B03002B30D1A368002B34D17846FDF79B
:10AA9400D9F830E07846FDF7D5F8E4E77846FDF7D5
:10AAA400D1F8E1E7636813F0030F0DD1E36813F005
:10AAB400030F0DD1A36813F0030F0DD1A368D3B90D
:10AAC4007846FDF7BFF816E07846FDF7BBF8EDE7EA
:10AAD4007846FDF7B7F8EDE77846FDF7B3F8EDE70C
:10AAE4007846FDF7AFF8C9E77846FDF7ABF8CAE753
:10AAF4007846FDF7A7F8EFF3108872B6BC2505FB7E
:10AB040006F505F10803204D1D44043500212846AF
:10AB140002F014F8814668B30021284602F03EF89A
:10AB240020686168A268E368C9F80000C9F80410E5
:10AB3400C9F80820C9F80C302FB1134ABC2303FB11
:10AB440006235B883B80104ABC2303FB06235A88F8
:10AB540001325A8093F8B83073B90C4B1B780BB19F
:10AB640000200AE0084BBC2000FB0630FFF758FE2B
:10AB7400002002E0042000E00020B8F1000F00D122
:10AB840062B6BDE8F88300BF8C4C0020884C0020DE
:10AB940018B1830B024AD05C70470020704700BF95
:10ABA4009CE7030012DF704700B583B01378A3B1AC
:10ABB400042B14D1072110F8013C163B152B31D876
:10ABC400DFE803F05930303030303030303030305E
:10ABD400303030303030302E0F3A517DEBE70021E9
:10ABE400E9E7022901D007291CD110F8021C013918
:10ABF40001F03AFDB0B1264B1B6813F0400F11D0A1
:10AC0400244B1B68012B0DDD234BD3F80435019035
:10AC1400224A00928A222249022002F07FF901E0AE
:10AC2400022902D003B05DF804FB10F8021C0139BC
:10AC3400C9B20FF0C3FCF5E70229F3D110F8021CE6
:10AC44000139C9B203F02EFB0028EBD0104B1B686E
:10AC540013F0400FE6D00F4B1B68012BE2DD0E4BC7
:10AC6400D3F8043501900F4A00929D220C4902202A
:10AC740002F054F9D6E701884FF6E4639942D1D142
:10AC840010F8021C03390230FCF72CFFCAE700BF9E
:10AC9400483300204433002000B0004024E803007F
:10ACA40019E8030050E8030070B58AB00BF082F98C
:10ACB40058B3064600238DF8103005AC05460FCD79
:10ACC4000FC42B682360727D052A04D9337D03F0F9
:10ACD4000F03072B20D1184B1B689BB104AB0393C4
:10ACE400337DC3F303038DF80430737D062B1DD924
:10ACF400063B8DF8053006F11D0302930E4B1B68CD
:10AD040001A8984730460BF035F90BF06DF980F047
:10AD14000100C0B20AB070BD307D04AB063A06F142
:10AD24001D0100F00F0009F055FFD4E700238DF852
:10AD340005300293E2E700BFC44E002070B582B034
:10AD44002F4B1B78002B52D1002854D0067A0F2E9B
:10AD540001D0072E51D10446C06870B1FCF784FFBE
:10AD64000DF10700FFF71EFF0546002840D19DF8AE
:10AD74000730012B04D002253AE0FCF783FFEFE70C
:10AD8400FCF796FF00F028FB304600F0F1FFE07876
:10AD940000F046F900F000FF0AF084FB19480BF0BC
:10ADA400BFF90AF0B5F8FFF72DFE04F08BFA00F0B6
:10ADB40043FD04F06BFF204601F0BEFB2046FDF787
:10ADC40089FF03F02BFE2046FFF730F9FCF78AFEDB
:10ADD40018B1062801D005460AE00B4809F0DCFE4C
:10ADE4000A4B00221A60064B01221A7000E0082563
:10ADF400284602B070BD0E25FAE70725F8E700BF24
:10AE0400C14E0020ADAC020038330020C44E0020F7
:10AE140030B583B0204B1B78002B35D01F4B1B78EB
:10AE2400002B33D100F0DEFEC0B90AF05DFB04460E
:10AE340068BB0BF089F801F091FBFCF753FE054663
:10AE4400F0B106281CD0164B1B6813F4804F21D098
:10AE5400144B1B68012B05DC044618E07846FCF70C
:10AE6400F1FEE2E7104BD3F8043501900F4A00924B
:10AE74004FF4C4720E49022002F050F82C4606E04A
:10AE8400064B01221A7002E0082400E00824204640
:10AE940003B030BD0446FAE7C14E0020C04E002086
:10AEA400483300204433002000B00040B8E70300DA
:10AEB40019E8030030B583B004460D460E4B1B68F9
:10AEC40013F4804F03D00D4B1B68062B05DC294679
:10AED4002046FDF767FF03B030BD094BD3F80435B6
:10AEE400084A0192084A00924FF4D7720749072092
:10AEF40002F014F8EBE700BF48330020443300208D
:10AF040000B00040A0E70300CCE2030019E803000E
:10AF140008B5FEF7C3F908BD08B500F013FE00201C
:10AF240008BD0000014B1860704700BFC44E0020EC
:10AF340070470000064A136801331360B3F1704F81
:10AF440002D0034B18687047134601221A60F8E7D1
:10AF5400C84E002010B5044618B100232360636076
:10AF640010BD7846FCF76EFEF7E738B50C4605468B
:10AF740068B184B100236360EFF3108372B62A686A
:10AF84006AB16A6854606C6003B962B638BD7846C9
:10AF9400FCF758FEEDE77846FCF754FEEAE72C6030
:10AFA400F1E710B5044658B1EFF3108372B6206888
:10AFB40008B142682260226832B103B962B610BD9A
:10AFC4007846FCF73FFEEFE76260F6E710B504460B
:10AFD40008B1206810BD7846FCF734FEF9E735DF88
:10AFE40070473CDF7047000010B504464FF0FF3057
:10AFF400FFF7F5FF4FF0FF312046FFF7F2FFBFF3F5
:10B004004F8F0549CA6802F4E062044B1343CB60D6
:10B01400BFF34F8F00BFFDE700ED00E00400FA0529
:10B02400072814D8DFE800F0080C1504110F0A06ED
:10B034006420704714207047FA2070471E20704720
:10B044004FF4FA707047322070474B207047FA2053
:10B054007047962070470000024B5868103840B281
:10B06400704700BF00ED00E0034600280FDB5B11D2
:10B07400084A52F82330424200F01F0002F01F0237
:10B0840058BF504223FA00F000F00100704700F16D
:10B094001F03ECE700E100E046DF7047F8B5044623
:10B0A4000D464B1EDBB2012B09D8002222616261DE
:10B0B400A261E2612046FFF7EFFF012616E0784621
:10B0C400FCF7C0FDF1E7CA5CC8185200D2B2407860
:10B0D40042EAD012CA5401339BB20E2BF3DDCB7B70
:10B0E4005B00CB73002F08DB0136F6B2AE420BD8FF
:10B0F400214611F9207F0023EFE794F82F3083F0E5
:10B10400870384F82F30EFE7F8BD2DE9F04190B0C4
:10B1140084460C4696461F4602F10F0636111FFA66
:10B1240086F804AD0068DCF80410DCF80820DCF8CC
:10B134000C300FC50EF00F05B8F1000F02D085B129
:10B14400002300E0002398466BB1012104A8FFF717
:10B15400A5FFB8F1000F1BD0B0B2013800011023D5
:10B164000EE00123EFE70221F0E7013B9BB2221836
:10B17400D25C10A9194411F8101C4A400DF80320A0
:10B18400002BF2D100250C950D950E950F9534E00A
:10B19400B1B20139ADB22A4604EB0111684612F08E
:10B1A400ABFC80230DF805306B1C03E000220DF886
:10B1B400032001330F2BF9DD10230AE0013B9BB27E
:10B1C4001DF8032010A9194411F8101C4A400DF869
:10B1D4000320002BF2D1D5E7013B9BB210AA1A44FD
:10B1E40012F8102C2118C95C4A4008A9CA54002B33
:10B1F400F2D104A8FFF750FF0135B3B2013BAB42D3
:10B2040002DD28011023F2E710230AE0013B9BB280
:10B2140010AAD11811F8402C11F8101C4A4008A9A2
:10B22400CA54002BF2D104A8FFF736FF0CAC0FCCA4
:10B2340038607960BA60FB6010B0BDE8F08100004E
:10B244000A4B1B68834207D0084B1B6853B15A69E9
:10B25400824205D01346F9E74269044B1A6001E0C3
:10B2640042695A6100230370704700BFD04E00202A
:10B2740010B50446134B1B684BB14068114B1B6857
:10B284005B68C31A002B02DB0E4B19680DE00D4BF3
:10B294001A6862611C600B4A938801339BB29380E5
:10B2A40063B10123237010BD19464B691BB15A6861
:10B2B400121A002AF8DB63614C61ECE77846FCF76C
:10B2C400C1FCEEE7D04E002038B5054619E06369AD
:10B2D400214A13600023636193889BB2591E89B28B
:10B2E40091800BB3A3681BB302232370A368216965
:10B2F4002846984700F030F905462378DBB2022B44
:10B304001AD0154B1B6833B3134B1B685B685B1B6C
:10B31400642B20D5104B1C682378DBB2012BD6D0CC
:10B324007846FCF78FFCD2E77846FCF78BFCD9E72C
:10B334007846FCF787FCD7E7E26812B9002323704C
:10B34400DFE76368134463605B1B642BF9D4204616
:10B35400FFF78EFFD5E738BDD04E002008B5124B5D
:10B364001B6873B1104B1B685B68C31A13F1640F3D
:10B3740008D402230D4A00F16401012000F0B0F862
:10B3840070B908BD084B19680223084A49680120AE
:10B3940000F0A6F80028F4D07846FCF753FCF0E758
:10B3A4007846FCF74FFCECE7D04E0020CDB302000A
:10B3B40008B500F0D1F8FFF787FF00F0CDF8FFF7EC
:10B3C400CDFF012008BD000008B5024B186800F04D
:10B3D40069FD08BDCC4E002008B5054B00221A605B
:10B3E4005A60044800F03EFD034B186008BD00BFDE
:10B3F400D04E0020B5B30200CC4E002010B5044658
:10B4040000F024FE80B19CB1A368ABB12378DBB219
:10B41400012B15D0002363612046FFF729FF00F0BC
:10B424009BF8FFF79BFF10BD7846FCF70BFCEAE79F
:10B434007846FCF707FCE7E77846FCF703FCE5E70A
:10B444007846FCF7FFFBE5E710B5044600F0FEFD87
:10B4540050B16CB12046FFF7F3FE0023636100F0A6
:10B464007BF8FFF77BFF10BD7846FCF7EBFBF0E7BA
:10B474007846FCF7E7FBEDE738B504460D4600F0E7
:10B48400E5FD70B18CB12046FFF7DAFE002363615D
:10B4940065602046FFF7ECFE00F05EF8FFF75EFF04
:10B4A40038BD7846FCF7CEFBECE77846FCF7CAFBE0
:10B4B400E9E7000010B4094B00F15002002443F8FE
:10B4C400224000F110040122A240C3F8042300F535
:10B4D400A87043F820105DF8044B704700800040CA
:10B4E400022825D838B533F0030423D1EFF31085AF
:10B4F400124C256072B6124C44F82020114A42F8CE
:10B504002010114A1354114B002243F82020104BF1
:10B514001B7833B10F4B1B68CA1A07D41146FFF7C7
:10B52400C9FF064B186838B962B604E05A1AF5E741
:10B53400072070470A2038BD0020FCE7FC4E00209D
:10B54400DC4E0020F04E0020D84E0020044F002096
:10B55400E84E0020EC4E0020EFF310820C4B1A60F2
:10B5640072B60C4B1B787BB10B4B0022C3F84C21F9
:10B574000122DA64D3F84C05084B1B681844044BC9
:10B584001B6803B962B67047054B1868F7E700BF3C
:10B59400FC4E0020E84E002000800040EC4E0020CD
:10B5A400004F002070B5002418E01F4B002243F820
:10B5B4002420012303FA05F51C4BC3F80853FFF7B5
:10B5C400CBFF1B4B1B5D13F0020F21D0B04704F1DE
:10B5D4005003164A002142F823100134022C21D8CA
:10B5E40004F15003114A52F82330002BF5D0D2F85D
:10B5F400043304F11005EB4013F0010FEDD00A4BB6
:10B6040053F82460002ED0D17846FCF71BFBCCE71E
:10B614000146304600F0D0FB0028D8D07846FCF72D
:10B6240011FBD4E770BD00BFDC4E00200080004059
:10B63400D84E002070B50546002414E0981A27E07F
:10B644005E1A29E02946184600F0B6FB002836D1D8
:10B654002A4B53F824302BB101221A60274B0022C5
:10B6640043F824200134022C3AD8254B04F5A8725F
:10B67400002143F8221004F1500243F8221053F839
:10B684002230204B53F824201F4B1B68D01AD5D4EA
:10B6940005F17801CE1AD3D4864214D91B4B53F842
:10B6A4002430002BD4D0194A002142F82410184A1F
:10B6B400125D12F0020FC5D028469847C8E77846B5
:10B6C400FCF7C0FAC4E7114B53F82430002BC9D05F
:10B6D400E0B2511B02D4FFF7EDFEC3E7A91AFAE763
:10B6E4000C4B1B681BB90C4B4FF480721A60064B51
:10B6F4001D600A4B01221A7070BD00BF044F002068
:10B7040000800040F04E0020EC4E0020DC4E002073
:10B71400D84E0020FC4E002000E100E0E84E00205E
:10B72400002300E00133022B0ED80F4AD25C12F042
:10B73400010FF7D000220C49CA540C4941F82320C8
:10B744000B4941F82320EDE70A4B18600A4B00220D
:10B754001A700A4B4FF0FF32C3F80823084B4FF41A
:10B764008072C3F880217047D84E0020DC4E002040
:10B77400044F0020004F0020E84E002000800040CD
:10B7840000E100E030DF704731DF704710B4026839
:10B794004368A2EB7312846883EAF4330360C168DC
:10B7A4000C444460114481601344C36018465DF83E
:10B7B400044B704770B582B00D46064608B10024AC
:10B7C4000BE07846FCF73EFAF9E79DF807103019CC
:10B7D400FFF7DAFF9DF807301C44A5420DD90DF19F
:10B7E4000700FFF7CFFF9DF80730002BF7D02A1B87
:10B7F4009342EAD98DF80720E7E702B070BD000054
:10B8040030B583B00546002402A840F8044D042155
:10B81400FFF7D0FF074B2B60019B6B60AB60EB60C5
:10B8240003E02846FFF7B2FF0134132CF9D903B023
:10B8340030BD00BFED5EEAF1704748DF704749DF75
:10B8440070474ADF704700002DE9F00F1F4BD3F813
:10B8540004650027837AA3BB1D4BD3E90023B41AE4
:10B8640024F07F4A4FF0000B4FEA4A124FEA4B1381
:10B87400B2EB0A0263EB0B03590241EAD2514FEADD
:10B88400422C0D461CEB0A0145EB0B024FEA8219D0
:10B8940049EA91694FEA81181346B8EB010269EB52
:10B8A40003031AEB02044BEB0305E30B43EA4542A3
:10B8B400436813444360064BC3E90067BDE8F00FD7
:10B8C4007047002383720268F2E700BF00B00040B3
:10B8D400704F002010B504460023C3600361FFF7D6
:10B8E400B3FF2368084A926822600121217503B9D5
:10B8F400064B991AA161B1F57A7F01D39A4202D914
:10B904004FF47A73A36110BD5C4F002080969800B9
:10B91400094B03221A75094A9A611A6840F6D863DA
:10B924009A4204D8054B40F6D8629A607047034B9C
:10B9340043F2B0629A6070473C4F00205C4F002095
:10B9440008B50B4B1B78012B05D0022B0BD0784686
:10B95400FCF778F903E00223037501238372044B97
:10B9640000221A7008BD03230375024B8361F6E7B6
:10B974006D4F00205C4F002038B505460024047547
:10B98400012343724068FFF755FE09F065FE6B68BA
:10B994002A6813440A490968283101FB02F1094A5B
:10B9A400A2FB0121A3EB91410323074A78392046E6
:10B9B400FFF796FD00B938BD7846FCF743F9FAE77E
:10B9C400584F002083DE1B4315B9020010B50C4606
:10B9D40031B103690133036182690368134403606D
:10B9E400C3680133C360012202758269520882610F
:10B9F400012B0DD0022B19D0826903681344174917
:10BA04008B4222D840F6D7639A4221D800231DE006
:10BA1400B2F5FA7F05D040F6D8639A42ECD8836138
:10BA2400EAE7002CF7D100238361E5E70369022BE1
:10BA340006D0012BE0D1002CDED100238361DBE7AB
:10BA44000268064B9B1A8361D6E7002313B110BD2D
:10BA54000123FBE7FFF790FFF9E700BF809698000A
:10BA6400437A1BB90E4B00221A70704710B5044676
:10BA740009F00EFE6068226810440A4B1B682833E4
:10BA840003FB02F3084AA2FB0323A0EB934078389C
:10BA9400FFF746FE00236372014B00221A7010BDAB
:10BAA4006C4F0020584F002083DE1B4308B5224B07
:10BAB40001221A72214B1B7813B1214B1B781BB343
:10BAC4001D4B00221A7504281AD8DFE800F003146D
